{
  "contractName": "Color",
  "abi": [
    {
      "inputs": [],
      "stateMutability": "nonpayable",
      "type": "constructor"
    },
    {
      "anonymous": false,
      "inputs": [
        {
          "indexed": true,
          "internalType": "address",
          "name": "owner",
          "type": "address"
        },
        {
          "indexed": true,
          "internalType": "address",
          "name": "approved",
          "type": "address"
        },
        {
          "indexed": true,
          "internalType": "uint256",
          "name": "tokenId",
          "type": "uint256"
        }
      ],
      "name": "Approval",
      "type": "event"
    },
    {
      "anonymous": false,
      "inputs": [
        {
          "indexed": true,
          "internalType": "address",
          "name": "owner",
          "type": "address"
        },
        {
          "indexed": true,
          "internalType": "address",
          "name": "operator",
          "type": "address"
        },
        {
          "indexed": false,
          "internalType": "bool",
          "name": "approved",
          "type": "bool"
        }
      ],
      "name": "ApprovalForAll",
      "type": "event"
    },
    {
      "anonymous": false,
      "inputs": [
        {
          "indexed": true,
          "internalType": "address",
          "name": "from",
          "type": "address"
        },
        {
          "indexed": true,
          "internalType": "address",
          "name": "to",
          "type": "address"
        },
        {
          "indexed": true,
          "internalType": "uint256",
          "name": "tokenId",
          "type": "uint256"
        }
      ],
      "name": "Transfer",
      "type": "event"
    },
    {
      "inputs": [
        {
          "internalType": "address",
          "name": "to",
          "type": "address"
        },
        {
          "internalType": "uint256",
          "name": "tokenId",
          "type": "uint256"
        }
      ],
      "name": "approve",
      "outputs": [],
      "stateMutability": "nonpayable",
      "type": "function"
    },
    {
      "inputs": [
        {
          "internalType": "address",
          "name": "owner",
          "type": "address"
        }
      ],
      "name": "balanceOf",
      "outputs": [
        {
          "internalType": "uint256",
          "name": "",
          "type": "uint256"
        }
      ],
      "stateMutability": "view",
      "type": "function",
      "constant": true
    },
    {
      "inputs": [
        {
          "internalType": "uint256",
          "name": "",
          "type": "uint256"
        }
      ],
      "name": "colors",
      "outputs": [
        {
          "internalType": "string",
          "name": "",
          "type": "string"
        }
      ],
      "stateMutability": "view",
      "type": "function",
      "constant": true
    },
    {
      "inputs": [
        {
          "internalType": "uint256",
          "name": "tokenId",
          "type": "uint256"
        }
      ],
      "name": "getApproved",
      "outputs": [
        {
          "internalType": "address",
          "name": "",
          "type": "address"
        }
      ],
      "stateMutability": "view",
      "type": "function",
      "constant": true
    },
    {
      "inputs": [
        {
          "internalType": "address",
          "name": "owner",
          "type": "address"
        },
        {
          "internalType": "address",
          "name": "operator",
          "type": "address"
        }
      ],
      "name": "isApprovedForAll",
      "outputs": [
        {
          "internalType": "bool",
          "name": "",
          "type": "bool"
        }
      ],
      "stateMutability": "view",
      "type": "function",
      "constant": true
    },
    {
      "inputs": [],
      "name": "name",
      "outputs": [
        {
          "internalType": "string",
          "name": "",
          "type": "string"
        }
      ],
      "stateMutability": "view",
      "type": "function",
      "constant": true
    },
    {
      "inputs": [
        {
          "internalType": "uint256",
          "name": "tokenId",
          "type": "uint256"
        }
      ],
      "name": "ownerOf",
      "outputs": [
        {
          "internalType": "address",
          "name": "",
          "type": "address"
        }
      ],
      "stateMutability": "view",
      "type": "function",
      "constant": true
    },
    {
      "inputs": [
        {
          "internalType": "address",
          "name": "from",
          "type": "address"
        },
        {
          "internalType": "address",
          "name": "to",
          "type": "address"
        },
        {
          "internalType": "uint256",
          "name": "tokenId",
          "type": "uint256"
        }
      ],
      "name": "safeTransferFrom",
      "outputs": [],
      "stateMutability": "nonpayable",
      "type": "function"
    },
    {
      "inputs": [
        {
          "internalType": "address",
          "name": "from",
          "type": "address"
        },
        {
          "internalType": "address",
          "name": "to",
          "type": "address"
        },
        {
          "internalType": "uint256",
          "name": "tokenId",
          "type": "uint256"
        },
        {
          "internalType": "bytes",
          "name": "_data",
          "type": "bytes"
        }
      ],
      "name": "safeTransferFrom",
      "outputs": [],
      "stateMutability": "nonpayable",
      "type": "function"
    },
    {
      "inputs": [
        {
          "internalType": "address",
          "name": "operator",
          "type": "address"
        },
        {
          "internalType": "bool",
          "name": "approved",
          "type": "bool"
        }
      ],
      "name": "setApprovalForAll",
      "outputs": [],
      "stateMutability": "nonpayable",
      "type": "function"
    },
    {
      "inputs": [
        {
          "internalType": "bytes4",
          "name": "interfaceId",
          "type": "bytes4"
        }
      ],
      "name": "supportsInterface",
      "outputs": [
        {
          "internalType": "bool",
          "name": "",
          "type": "bool"
        }
      ],
      "stateMutability": "view",
      "type": "function",
      "constant": true
    },
    {
      "inputs": [],
      "name": "symbol",
      "outputs": [
        {
          "internalType": "string",
          "name": "",
          "type": "string"
        }
      ],
      "stateMutability": "view",
      "type": "function",
      "constant": true
    },
    {
      "inputs": [
        {
          "internalType": "uint256",
          "name": "tokenId",
          "type": "uint256"
        }
      ],
      "name": "tokenURI",
      "outputs": [
        {
          "internalType": "string",
          "name": "",
          "type": "string"
        }
      ],
      "stateMutability": "view",
      "type": "function",
      "constant": true
    },
    {
      "inputs": [
        {
          "internalType": "address",
          "name": "from",
          "type": "address"
        },
        {
          "internalType": "address",
          "name": "to",
          "type": "address"
        },
        {
          "internalType": "uint256",
          "name": "tokenId",
          "type": "uint256"
        }
      ],
      "name": "transferFrom",
      "outputs": [],
      "stateMutability": "nonpayable",
      "type": "function"
    },
    {
      "inputs": [
        {
          "internalType": "string",
          "name": "_color",
          "type": "string"
        }
      ],
      "name": "mint",
      "outputs": [],
      "stateMutability": "nonpayable",
      "type": "function"
    },
    {
      "inputs": [],
      "name": "totalSupply",
      "outputs": [
        {
          "internalType": "uint256",
          "name": "",
          "type": "uint256"
        }
      ],
      "stateMutability": "view",
      "type": "function",
      "constant": true
    },
    {
      "inputs": [
        {
          "internalType": "address",
          "name": "owner",
          "type": "address"
        },
        {
          "internalType": "uint256",
          "name": "index",
          "type": "uint256"
        }
      ],
      "name": "tokenOfOwnerByIndex",
      "outputs": [
        {
          "internalType": "uint256",
          "name": "",
          "type": "uint256"
        }
      ],
      "stateMutability": "view",
      "type": "function",
      "constant": true
    },
    {
      "inputs": [
        {
          "internalType": "uint256",
          "name": "index",
          "type": "uint256"
        }
      ],
      "name": "tokenByIndex",
      "outputs": [
        {
          "internalType": "uint256",
          "name": "",
          "type": "uint256"
        }
      ],
      "stateMutability": "view",
      "type": "function",
      "constant": true
    }
  ],
  "bytecode": "0x60806040523480156200001157600080fd5b506040518060400160405280600581526020017f436f6c6f720000000000000000000000000000000000000000000000000000008152506040518060400160405280600581526020017f434f4c4f52000000000000000000000000000000000000000000000000000000815250816000908051906020019062000096929190620000b8565b508060019080519060200190620000af929190620000b8565b505050620001cd565b828054620000c69062000168565b90600052602060002090601f016020900481019282620000ea576000855562000136565b82601f106200010557805160ff191683800117855562000136565b8280016001018555821562000136579182015b828111156200013557825182559160200191906001019062000118565b5b50905062000145919062000149565b5090565b5b80821115620001645760008160009055506001016200014a565b5090565b600060028204905060018216806200018157607f821691505b602082108114156200019857620001976200019e565b5b50919050565b7f4e487b7100000000000000000000000000000000000000000000000000000000600052602260045260246000fd5b612b2980620001dd6000396000f3fe608060405234801561001057600080fd5b50600436106101165760003560e01c80636352211e116100a2578063b88d4fde11610071578063b88d4fde14610305578063bd11f69d14610321578063c87b56dd14610351578063d85d3d2714610381578063e985e9c51461039d57610116565b80636352211e1461026b57806370a082311461029b57806395d89b41146102cb578063a22cb465146102e957610116565b806318160ddd116100e957806318160ddd146101b557806323b872dd146101d35780632f745c59146101ef57806342842e0e1461021f5780634f6ccce71461023b57610116565b806301ffc9a71461011b57806306fdde031461014b578063081812fc14610169578063095ea7b314610199575b600080fd5b61013560048036038101906101309190611c4b565b6103cd565b6040516101429190612077565b60405180910390f35b6101536104af565b6040516101609190612092565b60405180910390f35b610183600480360381019061017e9190611cee565b610541565b6040516101909190612010565b60405180910390f35b6101b360048036038101906101ae9190611c0b565b6105c6565b005b6101bd6106de565b6040516101ca9190612274565b60405180910390f35b6101ed60048036038101906101e89190611af5565b6106eb565b005b61020960048036038101906102049190611c0b565b61074b565b6040516102169190612274565b60405180910390f35b61023960048036038101906102349190611af5565b610753565b005b61025560048036038101906102509190611cee565b610773565b6040516102629190612274565b60405180910390f35b61028560048036038101906102809190611cee565b61077a565b6040516102929190612010565b60405180910390f35b6102b560048036038101906102b09190611a88565b61082c565b6040516102c29190612274565b60405180910390f35b6102d36108e4565b6040516102e09190612092565b60405180910390f35b61030360048036038101906102fe9190611bcb565b610976565b005b61031f600480360381019061031a9190611b48565b610af7565b005b61033b60048036038101906103369190611cee565b610b59565b6040516103489190612092565b60405180910390f35b61036b60048036038101906103669190611cee565b610c05565b6040516103789190612092565b60405180910390f35b61039b60048036038101906103969190611ca5565b610cac565b005b6103b760048036038101906103b29190611ab5565b610d6d565b6040516103c49190612077565b60405180910390f35b60007f80ac58cd000000000000000000000000000000000000000000000000000000007bffffffffffffffffffffffffffffffffffffffffffffffffffffffff1916827bffffffffffffffffffffffffffffffffffffffffffffffffffffffff1916148061049857507f5b5e139f000000000000000000000000000000000000000000000000000000007bffffffffffffffffffffffffffffffffffffffffffffffffffffffff1916827bffffffffffffffffffffffffffffffffffffffffffffffffffffffff1916145b806104a857506104a782610e01565b5b9050919050565b6060600080546104be906124ca565b80601f01602080910402602001604051908101604052809291908181526020018280546104ea906124ca565b80156105375780601f1061050c57610100808354040283529160200191610537565b820191906000526020600020905b81548152906001019060200180831161051a57829003601f168201915b5050505050905090565b600061054c82610e6b565b61058b576040517f08c379a0000000000000000000000000000000000000000000000000000000008152600401610582906121d4565b60405180910390fd5b6004600083815260200190815260200160002060009054906101000a900473ffffffffffffffffffffffffffffffffffffffff169050919050565b60006105d18261077a565b90508073ffffffffffffffffffffffffffffffffffffffff168373ffffffffffffffffffffffffffffffffffffffff161415610642576040517f08c379a000000000000000000000000000000000000000000000000000000000815260040161063990612234565b60405180910390fd5b8073ffffffffffffffffffffffffffffffffffffffff16610661610ed7565b73ffffffffffffffffffffffffffffffffffffffff161480610690575061068f8161068a610ed7565b610d6d565b5b6106cf576040517f08c379a00000000000000000000000000000000000000000000000000000000081526004016106c690612154565b60405180910390fd5b6106d98383610edf565b505050565b6000600680549050905090565b6106fc6106f6610ed7565b82610f98565b61073b576040517f08c379a000000000000000000000000000000000000000000000000000000000815260040161073290612254565b60405180910390fd5b610746838383611076565b505050565b600092915050565b61076e83838360405180602001604052806000815250610af7565b505050565b6000919050565b6000806002600084815260200190815260200160002060009054906101000a900473ffffffffffffffffffffffffffffffffffffffff169050600073ffffffffffffffffffffffffffffffffffffffff168173ffffffffffffffffffffffffffffffffffffffff161415610823576040517f08c379a000000000000000000000000000000000000000000000000000000000815260040161081a90612194565b60405180910390fd5b80915050919050565b60008073ffffffffffffffffffffffffffffffffffffffff168273ffffffffffffffffffffffffffffffffffffffff16141561089d576040517f08c379a000000000000000000000000000000000000000000000000000000000815260040161089490612174565b60405180910390fd5b600360008373ffffffffffffffffffffffffffffffffffffffff1673ffffffffffffffffffffffffffffffffffffffff168152602001908152602001600020549050919050565b6060600180546108f3906124ca565b80601f016020809104026020016040519081016040528092919081815260200182805461091f906124ca565b801561096c5780601f106109415761010080835404028352916020019161096c565b820191906000526020600020905b81548152906001019060200180831161094f57829003601f168201915b5050505050905090565b61097e610ed7565b73ffffffffffffffffffffffffffffffffffffffff168273ffffffffffffffffffffffffffffffffffffffff1614156109ec576040517f08c379a00000000000000000000000000000000000000000000000000000000081526004016109e390612114565b60405180910390fd5b80600560006109f9610ed7565b73ffffffffffffffffffffffffffffffffffffffff1673ffffffffffffffffffffffffffffffffffffffff16815260200190815260200160002060008473ffffffffffffffffffffffffffffffffffffffff1673ffffffffffffffffffffffffffffffffffffffff16815260200190815260200160002060006101000a81548160ff0219169083151502179055508173ffffffffffffffffffffffffffffffffffffffff16610aa6610ed7565b73ffffffffffffffffffffffffffffffffffffffff167f17307eab39ab6107e8899845ad3d59bd9653f200f220920489ca2b5937696c3183604051610aeb9190612077565b60405180910390a35050565b610b08610b02610ed7565b83610f98565b610b47576040517f08c379a0000000000000000000000000000000000000000000000000000000008152600401610b3e90612254565b60405180910390fd5b610b53848484846112d2565b50505050565b60068181548110610b6957600080fd5b906000526020600020016000915090508054610b84906124ca565b80601f0160208091040260200160405190810160405280929190818152602001828054610bb0906124ca565b8015610bfd5780601f10610bd257610100808354040283529160200191610bfd565b820191906000526020600020905b815481529060010190602001808311610be057829003601f168201915b505050505081565b6060610c1082610e6b565b610c4f576040517f08c379a0000000000000000000000000000000000000000000000000000000008152600401610c4690612214565b60405180910390fd5b6000610c5961132e565b90506000815111610c795760405180602001604052806000815250610ca4565b80610c8384611345565b604051602001610c94929190611fec565b6040516020818303038152906040525b915050919050565b600781604051610cbc9190611fd5565b908152602001604051809103902060009054906101000a900460ff1615610ce257600080fd5b600681908060018154018082558091505060019003906000526020600020016000909190919091509080519060200190610d1d92919061189c565b5060006006805490509050610d3233826114a6565b6001600783604051610d449190611fd5565b908152602001604051809103902060006101000a81548160ff0219169083151502179055505050565b6000600560008473ffffffffffffffffffffffffffffffffffffffff1673ffffffffffffffffffffffffffffffffffffffff16815260200190815260200160002060008373ffffffffffffffffffffffffffffffffffffffff1673ffffffffffffffffffffffffffffffffffffffff16815260200190815260200160002060009054906101000a900460ff16905092915050565b60007f01ffc9a7000000000000000000000000000000000000000000000000000000007bffffffffffffffffffffffffffffffffffffffffffffffffffffffff1916827bffffffffffffffffffffffffffffffffffffffffffffffffffffffff1916149050919050565b60008073ffffffffffffffffffffffffffffffffffffffff166002600084815260200190815260200160002060009054906101000a900473ffffffffffffffffffffffffffffffffffffffff1673ffffffffffffffffffffffffffffffffffffffff1614159050919050565b600033905090565b816004600083815260200190815260200160002060006101000a81548173ffffffffffffffffffffffffffffffffffffffff021916908373ffffffffffffffffffffffffffffffffffffffff160217905550808273ffffffffffffffffffffffffffffffffffffffff16610f528361077a565b73ffffffffffffffffffffffffffffffffffffffff167f8c5be1e5ebec7d5bd14f71427d1e84f3dd0314c0f7b2291e5b200ac8c7c3b92560405160405180910390a45050565b6000610fa382610e6b565b610fe2576040517f08c379a0000000000000000000000000000000000000000000000000000000008152600401610fd990612134565b60405180910390fd5b6000610fed8361077a565b90508073ffffffffffffffffffffffffffffffffffffffff168473ffffffffffffffffffffffffffffffffffffffff16148061105c57508373ffffffffffffffffffffffffffffffffffffffff1661104484610541565b73ffffffffffffffffffffffffffffffffffffffff16145b8061106d575061106c8185610d6d565b5b91505092915050565b8273ffffffffffffffffffffffffffffffffffffffff166110968261077a565b73ffffffffffffffffffffffffffffffffffffffff16146110ec576040517f08c379a00000000000000000000000000000000000000000000000000000000081526004016110e3906121f4565b60405180910390fd5b600073ffffffffffffffffffffffffffffffffffffffff168273ffffffffffffffffffffffffffffffffffffffff16141561115c576040517f08c379a0000000000000000000000000000000000000000000000000000000008152600401611153906120f4565b60405180910390fd5b6111678383836114c4565b611172600082610edf565b6001600360008573ffffffffffffffffffffffffffffffffffffffff1673ffffffffffffffffffffffffffffffffffffffff16815260200190815260200160002060008282546111c291906123e0565b925050819055506001600360008473ffffffffffffffffffffffffffffffffffffffff1673ffffffffffffffffffffffffffffffffffffffff16815260200190815260200160002060008282546112199190612359565b92505081905550816002600083815260200190815260200160002060006101000a81548173ffffffffffffffffffffffffffffffffffffffff021916908373ffffffffffffffffffffffffffffffffffffffff160217905550808273ffffffffffffffffffffffffffffffffffffffff168473ffffffffffffffffffffffffffffffffffffffff167fddf252ad1be2c89b69c2b068fc378daa952ba7f163c4a11628f55a4df523b3ef60405160405180910390a4505050565b6112dd848484611076565b6112e9848484846114c9565b611328576040517f08c379a000000000000000000000000000000000000000000000000000000000815260040161131f906120b4565b60405180910390fd5b50505050565b606060405180602001604052806000815250905090565b6060600082141561138d576040518060400160405280600181526020017f300000000000000000000000000000000000000000000000000000000000000081525090506114a1565b600082905060005b600082146113bf5780806113a89061252d565b915050600a826113b891906123af565b9150611395565b60008167ffffffffffffffff8111156113db576113da612663565b5b6040519080825280601f01601f19166020018201604052801561140d5781602001600182028036833780820191505090505b5090505b6000851461149a5760018261142691906123e0565b9150600a856114359190612576565b60306114419190612359565b60f81b81838151811061145757611456612634565b5b60200101907effffffffffffffffffffffffffffffffffffffffffffffffffffffffffffff1916908160001a905350600a8561149391906123af565b9450611411565b8093505050505b919050565b6114c0828260405180602001604052806000815250611660565b5050565b505050565b60006114ea8473ffffffffffffffffffffffffffffffffffffffff166116bb565b15611653578373ffffffffffffffffffffffffffffffffffffffff1663150b7a02611513610ed7565b8786866040518563ffffffff1660e01b8152600401611535949392919061202b565b602060405180830381600087803b15801561154f57600080fd5b505af192505050801561158057506040513d601f19601f8201168201806040525081019061157d9190611c78565b60015b611603573d80600081146115b0576040519150601f19603f3d011682016040523d82523d6000602084013e6115b5565b606091505b506000815114156115fb576040517f08c379a00000000000000000000000000000000000000000000000000000000081526004016115f2906120b4565b60405180910390fd5b805181602001fd5b63150b7a0260e01b7bffffffffffffffffffffffffffffffffffffffffffffffffffffffff1916817bffffffffffffffffffffffffffffffffffffffffffffffffffffffff191614915050611658565b600190505b949350505050565b61166a83836116ce565b61167760008484846114c9565b6116b6576040517f08c379a00000000000000000000000000000000000000000000000000000000081526004016116ad906120b4565b60405180910390fd5b505050565b600080823b905060008111915050919050565b600073ffffffffffffffffffffffffffffffffffffffff168273ffffffffffffffffffffffffffffffffffffffff16141561173e576040517f08c379a0000000000000000000000000000000000000000000000000000000008152600401611735906121b4565b60405180910390fd5b61174781610e6b565b15611787576040517f08c379a000000000000000000000000000000000000000000000000000000000815260040161177e906120d4565b60405180910390fd5b611793600083836114c4565b6001600360008473ffffffffffffffffffffffffffffffffffffffff1673ffffffffffffffffffffffffffffffffffffffff16815260200190815260200160002060008282546117e39190612359565b92505081905550816002600083815260200190815260200160002060006101000a81548173ffffffffffffffffffffffffffffffffffffffff021916908373ffffffffffffffffffffffffffffffffffffffff160217905550808273ffffffffffffffffffffffffffffffffffffffff16600073ffffffffffffffffffffffffffffffffffffffff167fddf252ad1be2c89b69c2b068fc378daa952ba7f163c4a11628f55a4df523b3ef60405160405180910390a45050565b8280546118a8906124ca565b90600052602060002090601f0160209004810192826118ca5760008555611911565b82601f106118e357805160ff1916838001178555611911565b82800160010185558215611911579182015b828111156119105782518255916020019190600101906118f5565b5b50905061191e9190611922565b5090565b5b8082111561193b576000816000905550600101611923565b5090565b600061195261194d846122b4565b61228f565b90508281526020810184848401111561196e5761196d612697565b5b611979848285612488565b509392505050565b600061199461198f846122e5565b61228f565b9050828152602081018484840111156119b0576119af612697565b5b6119bb848285612488565b509392505050565b6000813590506119d281612a97565b92915050565b6000813590506119e781612aae565b92915050565b6000813590506119fc81612ac5565b92915050565b600081519050611a1181612ac5565b92915050565b600082601f830112611a2c57611a2b612692565b5b8135611a3c84826020860161193f565b91505092915050565b600082601f830112611a5a57611a59612692565b5b8135611a6a848260208601611981565b91505092915050565b600081359050611a8281612adc565b92915050565b600060208284031215611a9e57611a9d6126a1565b5b6000611aac848285016119c3565b91505092915050565b60008060408385031215611acc57611acb6126a1565b5b6000611ada858286016119c3565b9250506020611aeb858286016119c3565b9150509250929050565b600080600060608486031215611b0e57611b0d6126a1565b5b6000611b1c868287016119c3565b9350506020611b2d868287016119c3565b9250506040611b3e86828701611a73565b9150509250925092565b60008060008060808587031215611b6257611b616126a1565b5b6000611b70878288016119c3565b9450506020611b81878288016119c3565b9350506040611b9287828801611a73565b925050606085013567ffffffffffffffff811115611bb357611bb261269c565b5b611bbf87828801611a17565b91505092959194509250565b60008060408385031215611be257611be16126a1565b5b6000611bf0858286016119c3565b9250506020611c01858286016119d8565b9150509250929050565b60008060408385031215611c2257611c216126a1565b5b6000611c30858286016119c3565b9250506020611c4185828601611a73565b9150509250929050565b600060208284031215611c6157611c606126a1565b5b6000611c6f848285016119ed565b91505092915050565b600060208284031215611c8e57611c8d6126a1565b5b6000611c9c84828501611a02565b91505092915050565b600060208284031215611cbb57611cba6126a1565b5b600082013567ffffffffffffffff811115611cd957611cd861269c565b5b611ce584828501611a45565b91505092915050565b600060208284031215611d0457611d036126a1565b5b6000611d1284828501611a73565b91505092915050565b611d2481612414565b82525050565b611d3381612426565b82525050565b6000611d4482612316565b611d4e818561232c565b9350611d5e818560208601612497565b611d67816126a6565b840191505092915050565b6000611d7d82612321565b611d87818561233d565b9350611d97818560208601612497565b611da0816126a6565b840191505092915050565b6000611db682612321565b611dc0818561234e565b9350611dd0818560208601612497565b80840191505092915050565b6000611de960328361233d565b9150611df4826126b7565b604082019050919050565b6000611e0c601c8361233d565b9150611e1782612706565b602082019050919050565b6000611e2f60248361233d565b9150611e3a8261272f565b604082019050919050565b6000611e5260198361233d565b9150611e5d8261277e565b602082019050919050565b6000611e75602c8361233d565b9150611e80826127a7565b604082019050919050565b6000611e9860388361233d565b9150611ea3826127f6565b604082019050919050565b6000611ebb602a8361233d565b9150611ec682612845565b604082019050919050565b6000611ede60298361233d565b9150611ee982612894565b604082019050919050565b6000611f0160208361233d565b9150611f0c826128e3565b602082019050919050565b6000611f24602c8361233d565b9150611f2f8261290c565b604082019050919050565b6000611f4760298361233d565b9150611f528261295b565b604082019050919050565b6000611f6a602f8361233d565b9150611f75826129aa565b604082019050919050565b6000611f8d60218361233d565b9150611f98826129f9565b604082019050919050565b6000611fb060318361233d565b9150611fbb82612a48565b604082019050919050565b611fcf8161247e565b82525050565b6000611fe18284611dab565b915081905092915050565b6000611ff88285611dab565b91506120048284611dab565b91508190509392505050565b60006020820190506120256000830184611d1b565b92915050565b60006080820190506120406000830187611d1b565b61204d6020830186611d1b565b61205a6040830185611fc6565b818103606083015261206c8184611d39565b905095945050505050565b600060208201905061208c6000830184611d2a565b92915050565b600060208201905081810360008301526120ac8184611d72565b905092915050565b600060208201905081810360008301526120cd81611ddc565b9050919050565b600060208201905081810360008301526120ed81611dff565b9050919050565b6000602082019050818103600083015261210d81611e22565b9050919050565b6000602082019050818103600083015261212d81611e45565b9050919050565b6000602082019050818103600083015261214d81611e68565b9050919050565b6000602082019050818103600083015261216d81611e8b565b9050919050565b6000602082019050818103600083015261218d81611eae565b9050919050565b600060208201905081810360008301526121ad81611ed1565b9050919050565b600060208201905081810360008301526121cd81611ef4565b9050919050565b600060208201905081810360008301526121ed81611f17565b9050919050565b6000602082019050818103600083015261220d81611f3a565b9050919050565b6000602082019050818103600083015261222d81611f5d565b9050919050565b6000602082019050818103600083015261224d81611f80565b9050919050565b6000602082019050818103600083015261226d81611fa3565b9050919050565b60006020820190506122896000830184611fc6565b92915050565b60006122996122aa565b90506122a582826124fc565b919050565b6000604051905090565b600067ffffffffffffffff8211156122cf576122ce612663565b5b6122d8826126a6565b9050602081019050919050565b600067ffffffffffffffff821115612300576122ff612663565b5b612309826126a6565b9050602081019050919050565b600081519050919050565b600081519050919050565b600082825260208201905092915050565b600082825260208201905092915050565b600081905092915050565b60006123648261247e565b915061236f8361247e565b9250827fffffffffffffffffffffffffffffffffffffffffffffffffffffffffffffffff038211156123a4576123a36125a7565b5b828201905092915050565b60006123ba8261247e565b91506123c58361247e565b9250826123d5576123d46125d6565b5b828204905092915050565b60006123eb8261247e565b91506123f68361247e565b925082821015612409576124086125a7565b5b828203905092915050565b600061241f8261245e565b9050919050565b60008115159050919050565b60007fffffffff0000000000000000000000000000000000000000000000000000000082169050919050565b600073ffffffffffffffffffffffffffffffffffffffff82169050919050565b6000819050919050565b82818337600083830152505050565b60005b838110156124b557808201518184015260208101905061249a565b838111156124c4576000848401525b50505050565b600060028204905060018216806124e257607f821691505b602082108114156124f6576124f5612605565b5b50919050565b612505826126a6565b810181811067ffffffffffffffff8211171561252457612523612663565b5b80604052505050565b60006125388261247e565b91507fffffffffffffffffffffffffffffffffffffffffffffffffffffffffffffffff82141561256b5761256a6125a7565b5b600182019050919050565b60006125818261247e565b915061258c8361247e565b92508261259c5761259b6125d6565b5b828206905092915050565b7f4e487b7100000000000000000000000000000000000000000000000000000000600052601160045260246000fd5b7f4e487b7100000000000000000000000000000000000000000000000000000000600052601260045260246000fd5b7f4e487b7100000000000000000000000000000000000000000000000000000000600052602260045260246000fd5b7f4e487b7100000000000000000000000000000000000000000000000000000000600052603260045260246000fd5b7f4e487b7100000000000000000000000000000000000000000000000000000000600052604160045260246000fd5b600080fd5b600080fd5b600080fd5b600080fd5b6000601f19601f8301169050919050565b7f4552433732313a207472616e7366657220746f206e6f6e20455243373231526560008201527f63656976657220696d706c656d656e7465720000000000000000000000000000602082015250565b7f4552433732313a20746f6b656e20616c7265616479206d696e74656400000000600082015250565b7f4552433732313a207472616e7366657220746f20746865207a65726f2061646460008201527f7265737300000000000000000000000000000000000000000000000000000000602082015250565b7f4552433732313a20617070726f766520746f2063616c6c657200000000000000600082015250565b7f4552433732313a206f70657261746f7220717565727920666f72206e6f6e657860008201527f697374656e7420746f6b656e0000000000000000000000000000000000000000602082015250565b7f4552433732313a20617070726f76652063616c6c6572206973206e6f74206f7760008201527f6e6572206e6f7220617070726f76656420666f7220616c6c0000000000000000602082015250565b7f4552433732313a2062616c616e636520717565727920666f7220746865207a6560008201527f726f206164647265737300000000000000000000000000000000000000000000602082015250565b7f4552433732313a206f776e657220717565727920666f72206e6f6e657869737460008201527f656e7420746f6b656e0000000000000000000000000000000000000000000000602082015250565b7f4552433732313a206d696e7420746f20746865207a65726f2061646472657373600082015250565b7f4552433732313a20617070726f76656420717565727920666f72206e6f6e657860008201527f697374656e7420746f6b656e0000000000000000000000000000000000000000602082015250565b7f4552433732313a207472616e73666572206f6620746f6b656e2074686174206960008201527f73206e6f74206f776e0000000000000000000000000000000000000000000000602082015250565b7f4552433732314d657461646174613a2055524920717565727920666f72206e6f60008201527f6e6578697374656e7420746f6b656e0000000000000000000000000000000000602082015250565b7f4552433732313a20617070726f76616c20746f2063757272656e74206f776e6560008201527f7200000000000000000000000000000000000000000000000000000000000000602082015250565b7f4552433732313a207472616e736665722063616c6c6572206973206e6f74206f60008201527f776e6572206e6f7220617070726f766564000000000000000000000000000000602082015250565b612aa081612414565b8114612aab57600080fd5b50565b612ab781612426565b8114612ac257600080fd5b50565b612ace81612432565b8114612ad957600080fd5b50565b612ae58161247e565b8114612af057600080fd5b5056fea26469706673582212208c183da8b38815794c2717e77bc3d9fdeae7b89459070e23b73e85a8d2a5acaf64736f6c63430008070033",
  "immutableReferences": {},
  "source": "// SPDX-License-Identifier: MIT\r\npragma solidity ^0.8.0;\r\n\r\nimport \"@openzeppelin/contracts/token/ERC721/ERC721.sol\";\r\nimport \"@openzeppelin/contracts/token/ERC721/extensions/IERC721Enumerable.sol\";\r\n\r\ncontract Color is ERC721, IERC721Enumerable  {\r\n\r\n    string[] public colors;\r\n\r\n    mapping(string => bool) _colorExists;\r\n    \r\n    constructor() ERC721(\"Color\", \"COLOR\") {\r\n    }\r\n\r\n    // IN REAL LIFE MAKE THIS ONLY OWNER, NOT PUBLIC!\r\n    function mint(string  memory _color) public {\r\n        require(!_colorExists[_color]);\r\n        colors.push(_color);\r\n        uint _id = colors.length;\r\n        _safeMint(msg.sender, _id);\r\n        _colorExists[_color] = true;\r\n    }\r\n\r\n    function totalSupply() external view override returns (uint256) {\r\n        return colors.length;\r\n    }\r\n\r\n    function tokenOfOwnerByIndex(address owner, uint256 index) external view override returns (uint256 ) {}\r\n\r\n    function tokenByIndex(uint256 index) external view override returns (uint256 ) {}\r\n}",
  "sourcePath": "C:\\Developer\\NFT\\mint_eth_nfts_with_react_ui\\src\\contracts\\Color.sol",
  "compiler": {
    "name": "solc",
    "version": "0.8.7+commit.e28d00a7.Emscripten.clang"
  },
  "schemaVersion": "3.4.3",
  "updatedAt": "2021-09-10T19:34:21.239Z",
  "networkType": "ethereum",
  "devdoc": {
    "kind": "dev",
    "methods": {
      "approve(address,uint256)": {
        "details": "See {IERC721-approve}."
      },
      "balanceOf(address)": {
        "details": "See {IERC721-balanceOf}."
      },
      "getApproved(uint256)": {
        "details": "See {IERC721-getApproved}."
      },
      "isApprovedForAll(address,address)": {
        "details": "See {IERC721-isApprovedForAll}."
      },
      "name()": {
        "details": "See {IERC721Metadata-name}."
      },
      "ownerOf(uint256)": {
        "details": "See {IERC721-ownerOf}."
      },
      "safeTransferFrom(address,address,uint256)": {
        "details": "See {IERC721-safeTransferFrom}."
      },
      "safeTransferFrom(address,address,uint256,bytes)": {
        "details": "See {IERC721-safeTransferFrom}."
      },
      "setApprovalForAll(address,bool)": {
        "details": "See {IERC721-setApprovalForAll}."
      },
      "supportsInterface(bytes4)": {
        "details": "See {IERC165-supportsInterface}."
      },
      "symbol()": {
        "details": "See {IERC721Metadata-symbol}."
      },
      "tokenByIndex(uint256)": {
        "details": "Returns a token ID at a given `index` of all the tokens stored by the contract. Use along with {totalSupply} to enumerate all tokens."
      },
      "tokenOfOwnerByIndex(address,uint256)": {
        "details": "Returns a token ID owned by `owner` at a given `index` of its token list. Use along with {balanceOf} to enumerate all of ``owner``'s tokens."
      },
      "tokenURI(uint256)": {
        "details": "See {IERC721Metadata-tokenURI}."
      },
      "totalSupply()": {
        "details": "Returns the total amount of tokens stored by the contract."
      },
      "transferFrom(address,address,uint256)": {
        "details": "See {IERC721-transferFrom}."
      }
    },
    "version": 1
  },
  "userdoc": {
    "kind": "user",
    "methods": {},
    "version": 1
  }
}