{
  "contractName": "EthereumColors",
  "abi": [
    {
      "inputs": [],
      "stateMutability": "nonpayable",
      "type": "constructor"
    },
    {
      "anonymous": false,
      "inputs": [
        {
          "indexed": true,
          "internalType": "address",
          "name": "owner",
          "type": "address"
        },
        {
          "indexed": true,
          "internalType": "address",
          "name": "approved",
          "type": "address"
        },
        {
          "indexed": true,
          "internalType": "uint256",
          "name": "tokenId",
          "type": "uint256"
        }
      ],
      "name": "Approval",
      "type": "event"
    },
    {
      "anonymous": false,
      "inputs": [
        {
          "indexed": true,
          "internalType": "address",
          "name": "owner",
          "type": "address"
        },
        {
          "indexed": true,
          "internalType": "address",
          "name": "operator",
          "type": "address"
        },
        {
          "indexed": false,
          "internalType": "bool",
          "name": "approved",
          "type": "bool"
        }
      ],
      "name": "ApprovalForAll",
      "type": "event"
    },
    {
      "anonymous": false,
      "inputs": [
        {
          "indexed": true,
          "internalType": "uint256",
          "name": "tokenId",
          "type": "uint256"
        },
        {
          "indexed": false,
          "internalType": "string",
          "name": "tokenUri",
          "type": "string"
        }
      ],
      "name": "CreatedColor",
      "type": "event"
    },
    {
      "anonymous": false,
      "inputs": [
        {
          "indexed": true,
          "internalType": "address",
          "name": "from",
          "type": "address"
        },
        {
          "indexed": true,
          "internalType": "address",
          "name": "to",
          "type": "address"
        },
        {
          "indexed": true,
          "internalType": "uint256",
          "name": "tokenId",
          "type": "uint256"
        }
      ],
      "name": "Transfer",
      "type": "event"
    },
    {
      "inputs": [
        {
          "internalType": "address",
          "name": "to",
          "type": "address"
        },
        {
          "internalType": "uint256",
          "name": "tokenId",
          "type": "uint256"
        }
      ],
      "name": "approve",
      "outputs": [],
      "stateMutability": "nonpayable",
      "type": "function"
    },
    {
      "inputs": [
        {
          "internalType": "address",
          "name": "owner",
          "type": "address"
        }
      ],
      "name": "balanceOf",
      "outputs": [
        {
          "internalType": "uint256",
          "name": "",
          "type": "uint256"
        }
      ],
      "stateMutability": "view",
      "type": "function",
      "constant": true
    },
    {
      "inputs": [
        {
          "internalType": "uint256",
          "name": "",
          "type": "uint256"
        }
      ],
      "name": "colors",
      "outputs": [
        {
          "internalType": "string",
          "name": "",
          "type": "string"
        }
      ],
      "stateMutability": "view",
      "type": "function",
      "constant": true
    },
    {
      "inputs": [
        {
          "internalType": "uint256",
          "name": "tokenId",
          "type": "uint256"
        }
      ],
      "name": "getApproved",
      "outputs": [
        {
          "internalType": "address",
          "name": "",
          "type": "address"
        }
      ],
      "stateMutability": "view",
      "type": "function",
      "constant": true
    },
    {
      "inputs": [
        {
          "internalType": "address",
          "name": "owner",
          "type": "address"
        },
        {
          "internalType": "address",
          "name": "operator",
          "type": "address"
        }
      ],
      "name": "isApprovedForAll",
      "outputs": [
        {
          "internalType": "bool",
          "name": "",
          "type": "bool"
        }
      ],
      "stateMutability": "view",
      "type": "function",
      "constant": true
    },
    {
      "inputs": [],
      "name": "name",
      "outputs": [
        {
          "internalType": "string",
          "name": "",
          "type": "string"
        }
      ],
      "stateMutability": "view",
      "type": "function",
      "constant": true
    },
    {
      "inputs": [
        {
          "internalType": "uint256",
          "name": "tokenId",
          "type": "uint256"
        }
      ],
      "name": "ownerOf",
      "outputs": [
        {
          "internalType": "address",
          "name": "",
          "type": "address"
        }
      ],
      "stateMutability": "view",
      "type": "function",
      "constant": true
    },
    {
      "inputs": [
        {
          "internalType": "address",
          "name": "from",
          "type": "address"
        },
        {
          "internalType": "address",
          "name": "to",
          "type": "address"
        },
        {
          "internalType": "uint256",
          "name": "tokenId",
          "type": "uint256"
        }
      ],
      "name": "safeTransferFrom",
      "outputs": [],
      "stateMutability": "nonpayable",
      "type": "function"
    },
    {
      "inputs": [
        {
          "internalType": "address",
          "name": "from",
          "type": "address"
        },
        {
          "internalType": "address",
          "name": "to",
          "type": "address"
        },
        {
          "internalType": "uint256",
          "name": "tokenId",
          "type": "uint256"
        },
        {
          "internalType": "bytes",
          "name": "_data",
          "type": "bytes"
        }
      ],
      "name": "safeTransferFrom",
      "outputs": [],
      "stateMutability": "nonpayable",
      "type": "function"
    },
    {
      "inputs": [
        {
          "internalType": "address",
          "name": "operator",
          "type": "address"
        },
        {
          "internalType": "bool",
          "name": "approved",
          "type": "bool"
        }
      ],
      "name": "setApprovalForAll",
      "outputs": [],
      "stateMutability": "nonpayable",
      "type": "function"
    },
    {
      "inputs": [
        {
          "internalType": "bytes4",
          "name": "interfaceId",
          "type": "bytes4"
        }
      ],
      "name": "supportsInterface",
      "outputs": [
        {
          "internalType": "bool",
          "name": "",
          "type": "bool"
        }
      ],
      "stateMutability": "view",
      "type": "function",
      "constant": true
    },
    {
      "inputs": [],
      "name": "symbol",
      "outputs": [
        {
          "internalType": "string",
          "name": "",
          "type": "string"
        }
      ],
      "stateMutability": "view",
      "type": "function",
      "constant": true
    },
    {
      "inputs": [
        {
          "internalType": "uint256",
          "name": "tokenId",
          "type": "uint256"
        }
      ],
      "name": "tokenURI",
      "outputs": [
        {
          "internalType": "string",
          "name": "",
          "type": "string"
        }
      ],
      "stateMutability": "view",
      "type": "function",
      "constant": true
    },
    {
      "inputs": [
        {
          "internalType": "address",
          "name": "from",
          "type": "address"
        },
        {
          "internalType": "address",
          "name": "to",
          "type": "address"
        },
        {
          "internalType": "uint256",
          "name": "tokenId",
          "type": "uint256"
        }
      ],
      "name": "transferFrom",
      "outputs": [],
      "stateMutability": "nonpayable",
      "type": "function"
    },
    {
      "inputs": [
        {
          "internalType": "string",
          "name": "_color",
          "type": "string"
        }
      ],
      "name": "mint",
      "outputs": [],
      "stateMutability": "nonpayable",
      "type": "function"
    },
    {
      "inputs": [],
      "name": "totalSupply",
      "outputs": [
        {
          "internalType": "uint256",
          "name": "",
          "type": "uint256"
        }
      ],
      "stateMutability": "view",
      "type": "function",
      "constant": true
    },
    {
      "inputs": [
        {
          "internalType": "string",
          "name": "_color",
          "type": "string"
        }
      ],
      "name": "getTokenIdForColor",
      "outputs": [
        {
          "internalType": "uint256",
          "name": "",
          "type": "uint256"
        }
      ],
      "stateMutability": "view",
      "type": "function",
      "constant": true
    },
    {
      "inputs": [
        {
          "internalType": "string",
          "name": "_color",
          "type": "string"
        }
      ],
      "name": "getMetadataForColor",
      "outputs": [
        {
          "internalType": "string",
          "name": "",
          "type": "string"
        }
      ],
      "stateMutability": "view",
      "type": "function",
      "constant": true
    },
    {
      "inputs": [
        {
          "internalType": "string",
          "name": "_color",
          "type": "string"
        }
      ],
      "name": "getTokenUriForColor",
      "outputs": [
        {
          "internalType": "string",
          "name": "",
          "type": "string"
        }
      ],
      "stateMutability": "pure",
      "type": "function",
      "constant": true
    },
    {
      "inputs": [
        {
          "internalType": "string",
          "name": "_color",
          "type": "string"
        }
      ],
      "name": "colorToImageUri",
      "outputs": [
        {
          "internalType": "string",
          "name": "",
          "type": "string"
        }
      ],
      "stateMutability": "pure",
      "type": "function",
      "constant": true
    },
    {
      "inputs": [
        {
          "internalType": "string",
          "name": "_color",
          "type": "string"
        },
        {
          "internalType": "string",
          "name": "_imageUri",
          "type": "string"
        }
      ],
      "name": "formatTokenUri",
      "outputs": [
        {
          "internalType": "string",
          "name": "",
          "type": "string"
        }
      ],
      "stateMutability": "pure",
      "type": "function",
      "constant": true
    }
  ],
  "bytecode": "0x60806040523480156200001157600080fd5b506040518060400160405280600e81526020017f457468657265756d436f6c6f72730000000000000000000000000000000000008152506040518060400160405280600681526020017f434f4c4f52530000000000000000000000000000000000000000000000000000815250816000908051906020019062000096929190620000b8565b508060019080519060200190620000af929190620000b8565b505050620001cd565b828054620000c69062000168565b90600052602060002090601f016020900481019282620000ea576000855562000136565b82601f106200010557805160ff191683800117855562000136565b8280016001018555821562000136579182015b828111156200013557825182559160200191906001019062000118565b5b50905062000145919062000149565b5090565b5b80821115620001645760008160009055506001016200014a565b5090565b600060028204905060018216806200018157607f821691505b602082108114156200019857620001976200019e565b5b50919050565b7f4e487b7100000000000000000000000000000000000000000000000000000000600052602260045260246000fd5b61401e80620001dd6000396000f3fe608060405234801561001057600080fd5b50600436106101375760003560e01c806370a08231116100b8578063b88d4fde1161007c578063b88d4fde14610386578063bd11f69d146103a2578063c19bb430146103d2578063c87b56dd14610402578063d85d3d2714610432578063e985e9c51461044e57610137565b806370a08231146102bc57806395d89b41146102ec578063a0a6dbfd1461030a578063a22cb4651461033a578063af790a6e1461035657610137565b806323b872dd116100ff57806323b872dd146101f457806342842e0e1461021057806347c717011461022c578063583f27f61461025c5780636352211e1461028c57610137565b806301ffc9a71461013c57806306fdde031461016c578063081812fc1461018a578063095ea7b3146101ba57806318160ddd146101d6575b600080fd5b6101566004803603810190610151919061293a565b61047e565b6040516101639190613075565b60405180910390f35b610174610560565b6040516101819190613090565b60405180910390f35b6101a4600480360381019061019f9190612a55565b6105f2565b6040516101b1919061300e565b60405180910390f35b6101d460048036038101906101cf91906128fa565b610677565b005b6101de61078f565b6040516101eb9190613332565b60405180910390f35b61020e600480360381019061020991906127e4565b61079c565b005b61022a600480360381019061022591906127e4565b6107fc565b005b61024660048036038101906102419190612994565b61081c565b6040516102539190613332565b60405180910390f35b610276600480360381019061027191906129dd565b610849565b6040516102839190613090565b60405180910390f35b6102a660048036038101906102a19190612a55565b6108ed565b6040516102b3919061300e565b60405180910390f35b6102d660048036038101906102d19190612777565b61099f565b6040516102e39190613332565b60405180910390f35b6102f4610a57565b6040516103019190613090565b60405180910390f35b610324600480360381019061031f9190612994565b610ae9565b6040516103319190613090565b60405180910390f35b610354600480360381019061034f91906128ba565b610bc7565b005b610370600480360381019061036b9190612994565b610d48565b60405161037d9190613090565b60405180910390f35b6103a0600480360381019061039b9190612837565b610d84565b005b6103bc60048036038101906103b79190612a55565b610de6565b6040516103c99190613090565b60405180910390f35b6103ec60048036038101906103e79190612994565b610e92565b6040516103f99190613090565b60405180910390f35b61041c60048036038101906104179190612a55565b610eb9565b6040516104299190613090565b60405180910390f35b61044c60048036038101906104479190612994565b61100b565b005b610468600480360381019061046391906127a4565b6117bc565b6040516104759190613075565b60405180910390f35b60007f80ac58cd000000000000000000000000000000000000000000000000000000007bffffffffffffffffffffffffffffffffffffffffffffffffffffffff1916827bffffffffffffffffffffffffffffffffffffffffffffffffffffffff1916148061054957507f5b5e139f000000000000000000000000000000000000000000000000000000007bffffffffffffffffffffffffffffffffffffffffffffffffffffffff1916827bffffffffffffffffffffffffffffffffffffffffffffffffffffffff1916145b80610559575061055882611850565b5b9050919050565b60606000805461056f906135ef565b80601f016020809104026020016040519081016040528092919081815260200182805461059b906135ef565b80156105e85780601f106105bd576101008083540402835291602001916105e8565b820191906000526020600020905b8154815290600101906020018083116105cb57829003601f168201915b5050505050905090565b60006105fd826118ba565b61063c576040517f08c379a000000000000000000000000000000000000000000000000000000000815260040161063390613292565b60405180910390fd5b6004600083815260200190815260200160002060009054906101000a900473ffffffffffffffffffffffffffffffffffffffff169050919050565b6000610682826108ed565b90508073ffffffffffffffffffffffffffffffffffffffff168373ffffffffffffffffffffffffffffffffffffffff1614156106f3576040517f08c379a00000000000000000000000000000000000000000000000000000000081526004016106ea906132f2565b60405180910390fd5b8073ffffffffffffffffffffffffffffffffffffffff16610712611926565b73ffffffffffffffffffffffffffffffffffffffff16148061074157506107408161073b611926565b6117bc565b5b610780576040517f08c379a000000000000000000000000000000000000000000000000000000000815260040161077790613192565b60405180910390fd5b61078a838361192e565b505050565b6000600780549050905090565b6107ad6107a7611926565b826119e7565b6107ec576040517f08c379a00000000000000000000000000000000000000000000000000000000081526004016107e390613312565b60405180910390fd5b6107f7838383611ac5565b505050565b61081783838360405180602001604052806000815250610d84565b505050565b60008060098360405161082f9190612f26565b908152602001604051809103902054905080915050919050565b606060006040518060400160405280601d81526020017f646174613a6170706c69636174696f6e2f6a736f6e3b6261736536342c0000008152509050600084858560405160200161089c93929190612f90565b604051602081830303815290604052905060006108b882611d21565b9050600083826040516020016108cf929190612f3d565b60405160208183030381529060405290508094505050505092915050565b6000806002600084815260200190815260200160002060009054906101000a900473ffffffffffffffffffffffffffffffffffffffff169050600073ffffffffffffffffffffffffffffffffffffffff168173ffffffffffffffffffffffffffffffffffffffff161415610996576040517f08c379a000000000000000000000000000000000000000000000000000000000815260040161098d906131d2565b60405180910390fd5b80915050919050565b60008073ffffffffffffffffffffffffffffffffffffffff168273ffffffffffffffffffffffffffffffffffffffff161415610a10576040517f08c379a0000000000000000000000000000000000000000000000000000000008152600401610a07906131b2565b60405180910390fd5b600360008373ffffffffffffffffffffffffffffffffffffffff1673ffffffffffffffffffffffffffffffffffffffff168152602001908152602001600020549050919050565b606060018054610a66906135ef565b80601f0160208091040260200160405190810160405280929190818152602001828054610a92906135ef565b8015610adf5780601f10610ab457610100808354040283529160200191610adf565b820191906000526020600020905b815481529060010190602001808311610ac257829003601f168201915b5050505050905090565b606060006040518060400160405280601a81526020017f646174613a696d6167652f7376672b786d6c3b6261736536342c000000000000815250905060006040518060a00160405280606a8152602001613f7f606a9139905060008185604051602001610b57929190612f61565b60405160208183030381529060405290506000610b9282604051602001610b7e9190612f26565b604051602081830303815290604052611d21565b905060008482604051602001610ba9929190612f3d565b60405160208183030381529060405290508095505050505050919050565b610bcf611926565b73ffffffffffffffffffffffffffffffffffffffff168273ffffffffffffffffffffffffffffffffffffffff161415610c3d576040517f08c379a0000000000000000000000000000000000000000000000000000000008152600401610c3490613152565b60405180910390fd5b8060056000610c4a611926565b73ffffffffffffffffffffffffffffffffffffffff1673ffffffffffffffffffffffffffffffffffffffff16815260200190815260200160002060008473ffffffffffffffffffffffffffffffffffffffff1673ffffffffffffffffffffffffffffffffffffffff16815260200190815260200160002060006101000a81548160ff0219169083151502179055508173ffffffffffffffffffffffffffffffffffffffff16610cf7611926565b73ffffffffffffffffffffffffffffffffffffffff167f17307eab39ab6107e8899845ad3d59bd9653f200f220920489ca2b5937696c3183604051610d3c9190613075565b60405180910390a35050565b60606000600983604051610d5c9190612f26565b90815260200160405180910390205490506000610d7882610eb9565b90508092505050919050565b610d95610d8f611926565b836119e7565b610dd4576040517f08c379a0000000000000000000000000000000000000000000000000000000008152600401610dcb90613312565b60405180910390fd5b610de084848484611ea6565b50505050565b60078181548110610df657600080fd5b906000526020600020016000915090508054610e11906135ef565b80601f0160208091040260200160405190810160405280929190818152602001828054610e3d906135ef565b8015610e8a5780601f10610e5f57610100808354040283529160200191610e8a565b820191906000526020600020905b815481529060010190602001808311610e6d57829003601f168201915b505050505081565b60606000610e9f83610ae9565b90506000610ead8483610849565b90508092505050919050565b6060610ec4826118ba565b610f03576040517f08c379a0000000000000000000000000000000000000000000000000000000008152600401610efa90613252565b60405180910390fd5b6000600660008481526020019081526020016000208054610f23906135ef565b80601f0160208091040260200160405190810160405280929190818152602001828054610f4f906135ef565b8015610f9c5780601f10610f7157610100808354040283529160200191610f9c565b820191906000526020600020905b815481529060010190602001808311610f7f57829003601f168201915b505050505090506000610fad611f02565b9050600081511415610fc3578192505050611006565b600082511115610ff8578082604051602001610fe0929190612f3d565b60405160208183030381529060405292505050611006565b61100184611f19565b925050505b919050565b806007815114611050576040517f08c379a0000000000000000000000000000000000000000000000000000000008152600401611047906130b2565b60405180910390fd5b7f23000000000000000000000000000000000000000000000000000000000000008160008151811061108557611084613783565b5b602001015160f81c60f81b7effffffffffffffffffffffffffffffffffffffffffffffffffffffffffffff1916146110f2576040517f08c379a00000000000000000000000000000000000000000000000000000000081526004016110e990613112565b60405180910390fd5b6000600190505b60078160ff16101561165057603060f81b828260ff16815181106111205761111f613783565b5b602001015160f81c60f81b7effffffffffffffffffffffffffffffffffffffffffffffffffffffffffffff1916148061119e5750603160f81b828260ff168151811061116f5761116e613783565b5b602001015160f81c60f81b7effffffffffffffffffffffffffffffffffffffffffffffffffffffffffffff1916145b806111ee5750603260f81b828260ff16815181106111bf576111be613783565b5b602001015160f81c60f81b7effffffffffffffffffffffffffffffffffffffffffffffffffffffffffffff1916145b8061123e5750603360f81b828260ff168151811061120f5761120e613783565b5b602001015160f81c60f81b7effffffffffffffffffffffffffffffffffffffffffffffffffffffffffffff1916145b8061128e5750603460f81b828260ff168151811061125f5761125e613783565b5b602001015160f81c60f81b7effffffffffffffffffffffffffffffffffffffffffffffffffffffffffffff1916145b806112de5750603560f81b828260ff16815181106112af576112ae613783565b5b602001015160f81c60f81b7effffffffffffffffffffffffffffffffffffffffffffffffffffffffffffff1916145b8061132e5750603660f81b828260ff16815181106112ff576112fe613783565b5b602001015160f81c60f81b7effffffffffffffffffffffffffffffffffffffffffffffffffffffffffffff1916145b8061137e5750603760f81b828260ff168151811061134f5761134e613783565b5b602001015160f81c60f81b7effffffffffffffffffffffffffffffffffffffffffffffffffffffffffffff1916145b806113ce5750603860f81b828260ff168151811061139f5761139e613783565b5b602001015160f81c60f81b7effffffffffffffffffffffffffffffffffffffffffffffffffffffffffffff1916145b8061141e5750603960f81b828260ff16815181106113ef576113ee613783565b5b602001015160f81c60f81b7effffffffffffffffffffffffffffffffffffffffffffffffffffffffffffff1916145b8061146e5750604160f81b828260ff168151811061143f5761143e613783565b5b602001015160f81c60f81b7effffffffffffffffffffffffffffffffffffffffffffffffffffffffffffff1916145b806114be5750604260f81b828260ff168151811061148f5761148e613783565b5b602001015160f81c60f81b7effffffffffffffffffffffffffffffffffffffffffffffffffffffffffffff1916145b8061150e5750604360f81b828260ff16815181106114df576114de613783565b5b602001015160f81c60f81b7effffffffffffffffffffffffffffffffffffffffffffffffffffffffffffff1916145b8061155e5750604460f81b828260ff168151811061152f5761152e613783565b5b602001015160f81c60f81b7effffffffffffffffffffffffffffffffffffffffffffffffffffffffffffff1916145b806115ae5750604560f81b828260ff168151811061157f5761157e613783565b5b602001015160f81c60f81b7effffffffffffffffffffffffffffffffffffffffffffffffffffffffffffff1916145b806115fe5750604660f81b828260ff16815181106115cf576115ce613783565b5b602001015160f81c60f81b7effffffffffffffffffffffffffffffffffffffffffffffffffffffffffffff1916145b61163d576040517f08c379a000000000000000000000000000000000000000000000000000000000815260040161163490613232565b60405180910390fd5b80806116489061369b565b9150506110f9565b506008826040516116619190612f26565b908152602001604051809103902060009054906101000a900460ff16156116bd576040517f08c379a00000000000000000000000000000000000000000000000000000000081526004016116b490613272565b60405180910390fd5b600060078054905090506116d13382611fc0565b60078390806001815401808255809150506001900390600052602060002001600090919091909150908051906020019061170c92919061258b565b50600160088460405161171f9190612f26565b908152602001604051809103902060006101000a81548160ff021916908315150217905550806009846040516117559190612f26565b908152602001604051809103902081905550600061177284610e92565b905061177e8282611fde565b817fdc1228d97d3da011e0cd2f96e5a3adf93811b15e5abbd58389dff66d0031810d826040516117ae9190613090565b60405180910390a250505050565b6000600560008473ffffffffffffffffffffffffffffffffffffffff1673ffffffffffffffffffffffffffffffffffffffff16815260200190815260200160002060008373ffffffffffffffffffffffffffffffffffffffff1673ffffffffffffffffffffffffffffffffffffffff16815260200190815260200160002060009054906101000a900460ff16905092915050565b60007f01ffc9a7000000000000000000000000000000000000000000000000000000007bffffffffffffffffffffffffffffffffffffffffffffffffffffffff1916827bffffffffffffffffffffffffffffffffffffffffffffffffffffffff1916149050919050565b60008073ffffffffffffffffffffffffffffffffffffffff166002600084815260200190815260200160002060009054906101000a900473ffffffffffffffffffffffffffffffffffffffff1673ffffffffffffffffffffffffffffffffffffffff1614159050919050565b600033905090565b816004600083815260200190815260200160002060006101000a81548173ffffffffffffffffffffffffffffffffffffffff021916908373ffffffffffffffffffffffffffffffffffffffff160217905550808273ffffffffffffffffffffffffffffffffffffffff166119a1836108ed565b73ffffffffffffffffffffffffffffffffffffffff167f8c5be1e5ebec7d5bd14f71427d1e84f3dd0314c0f7b2291e5b200ac8c7c3b92560405160405180910390a45050565b60006119f2826118ba565b611a31576040517f08c379a0000000000000000000000000000000000000000000000000000000008152600401611a2890613172565b60405180910390fd5b6000611a3c836108ed565b90508073ffffffffffffffffffffffffffffffffffffffff168473ffffffffffffffffffffffffffffffffffffffff161480611aab57508373ffffffffffffffffffffffffffffffffffffffff16611a93846105f2565b73ffffffffffffffffffffffffffffffffffffffff16145b80611abc5750611abb81856117bc565b5b91505092915050565b8273ffffffffffffffffffffffffffffffffffffffff16611ae5826108ed565b73ffffffffffffffffffffffffffffffffffffffff1614611b3b576040517f08c379a0000000000000000000000000000000000000000000000000000000008152600401611b32906132b2565b60405180910390fd5b600073ffffffffffffffffffffffffffffffffffffffff168273ffffffffffffffffffffffffffffffffffffffff161415611bab576040517f08c379a0000000000000000000000000000000000000000000000000000000008152600401611ba290613132565b60405180910390fd5b611bb6838383612052565b611bc160008261192e565b6001600360008573ffffffffffffffffffffffffffffffffffffffff1673ffffffffffffffffffffffffffffffffffffffff1681526020019081526020016000206000828254611c1191906134f8565b925050819055506001600360008473ffffffffffffffffffffffffffffffffffffffff1673ffffffffffffffffffffffffffffffffffffffff1681526020019081526020016000206000828254611c689190613417565b92505081905550816002600083815260200190815260200160002060006101000a81548173ffffffffffffffffffffffffffffffffffffffff021916908373ffffffffffffffffffffffffffffffffffffffff160217905550808273ffffffffffffffffffffffffffffffffffffffff168473ffffffffffffffffffffffffffffffffffffffff167fddf252ad1be2c89b69c2b068fc378daa952ba7f163c4a11628f55a4df523b3ef60405160405180910390a4505050565b6060600082511415611d4457604051806020016040528060008152509050611ea1565b6000604051806060016040528060408152602001613f3f6040913990506000600360028551611d739190613417565b611d7d919061346d565b6004611d89919061349e565b90506000602082611d9a9190613417565b67ffffffffffffffff811115611db357611db26137b2565b5b6040519080825280601f01601f191660200182016040528015611de55781602001600182028036833780820191505090505b509050818152600183018586518101602084015b81831015611e60576003830192508251603f8160121c1685015160f81b8252600182019150603f81600c1c1685015160f81b8252600182019150603f8160061c1685015160f81b8252600182019150603f811685015160f81b825260018201915050611df9565b600389510660018114611e7a5760028114611e8a57611e95565b613d3d60f01b6002830352611e95565b603d60f81b60018303525b50505050508093505050505b919050565b611eb1848484611ac5565b611ebd84848484612057565b611efc576040517f08c379a0000000000000000000000000000000000000000000000000000000008152600401611ef3906130d2565b60405180910390fd5b50505050565b606060405180602001604052806000815250905090565b6060611f24826118ba565b611f63576040517f08c379a0000000000000000000000000000000000000000000000000000000008152600401611f5a906132d2565b60405180910390fd5b6000611f6d611f02565b90506000815111611f8d5760405180602001604052806000815250611fb8565b80611f97846121ee565b604051602001611fa8929190612f3d565b6040516020818303038152906040525b915050919050565b611fda82826040518060200160405280600081525061234f565b5050565b611fe7826118ba565b612026576040517f08c379a000000000000000000000000000000000000000000000000000000000815260040161201d906131f2565b60405180910390fd5b8060066000848152602001908152602001600020908051906020019061204d92919061258b565b505050565b505050565b60006120788473ffffffffffffffffffffffffffffffffffffffff166123aa565b156121e1578373ffffffffffffffffffffffffffffffffffffffff1663150b7a026120a1611926565b8786866040518563ffffffff1660e01b81526004016120c39493929190613029565b602060405180830381600087803b1580156120dd57600080fd5b505af192505050801561210e57506040513d601f19601f8201168201806040525081019061210b9190612967565b60015b612191573d806000811461213e576040519150601f19603f3d011682016040523d82523d6000602084013e612143565b606091505b50600081511415612189576040517f08c379a0000000000000000000000000000000000000000000000000000000008152600401612180906130d2565b60405180910390fd5b805181602001fd5b63150b7a0260e01b7bffffffffffffffffffffffffffffffffffffffffffffffffffffffff1916817bffffffffffffffffffffffffffffffffffffffffffffffffffffffff1916149150506121e6565b600190505b949350505050565b60606000821415612236576040518060400160405280600181526020017f3000000000000000000000000000000000000000000000000000000000000000815250905061234a565b600082905060005b6000821461226857808061225190613652565b915050600a82612261919061346d565b915061223e565b60008167ffffffffffffffff811115612284576122836137b2565b5b6040519080825280601f01601f1916602001820160405280156122b65781602001600182028036833780820191505090505b5090505b60008514612343576001826122cf91906134f8565b9150600a856122de91906136c5565b60306122ea9190613417565b60f81b818381518110612300576122ff613783565b5b60200101907effffffffffffffffffffffffffffffffffffffffffffffffffffffffffffff1916908160001a905350600a8561233c919061346d565b94506122ba565b8093505050505b919050565b61235983836123bd565b6123666000848484612057565b6123a5576040517f08c379a000000000000000000000000000000000000000000000000000000000815260040161239c906130d2565b60405180910390fd5b505050565b600080823b905060008111915050919050565b600073ffffffffffffffffffffffffffffffffffffffff168273ffffffffffffffffffffffffffffffffffffffff16141561242d576040517f08c379a000000000000000000000000000000000000000000000000000000000815260040161242490613212565b60405180910390fd5b612436816118ba565b15612476576040517f08c379a000000000000000000000000000000000000000000000000000000000815260040161246d906130f2565b60405180910390fd5b61248260008383612052565b6001600360008473ffffffffffffffffffffffffffffffffffffffff1673ffffffffffffffffffffffffffffffffffffffff16815260200190815260200160002060008282546124d29190613417565b92505081905550816002600083815260200190815260200160002060006101000a81548173ffffffffffffffffffffffffffffffffffffffff021916908373ffffffffffffffffffffffffffffffffffffffff160217905550808273ffffffffffffffffffffffffffffffffffffffff16600073ffffffffffffffffffffffffffffffffffffffff167fddf252ad1be2c89b69c2b068fc378daa952ba7f163c4a11628f55a4df523b3ef60405160405180910390a45050565b828054612597906135ef565b90600052602060002090601f0160209004810192826125b95760008555612600565b82601f106125d257805160ff1916838001178555612600565b82800160010185558215612600579182015b828111156125ff5782518255916020019190600101906125e4565b5b50905061260d9190612611565b5090565b5b8082111561262a576000816000905550600101612612565b5090565b600061264161263c84613372565b61334d565b90508281526020810184848401111561265d5761265c6137e6565b5b6126688482856135ad565b509392505050565b600061268361267e846133a3565b61334d565b90508281526020810184848401111561269f5761269e6137e6565b5b6126aa8482856135ad565b509392505050565b6000813590506126c181613ee2565b92915050565b6000813590506126d681613ef9565b92915050565b6000813590506126eb81613f10565b92915050565b60008151905061270081613f10565b92915050565b600082601f83011261271b5761271a6137e1565b5b813561272b84826020860161262e565b91505092915050565b600082601f830112612749576127486137e1565b5b8135612759848260208601612670565b91505092915050565b60008135905061277181613f27565b92915050565b60006020828403121561278d5761278c6137f0565b5b600061279b848285016126b2565b91505092915050565b600080604083850312156127bb576127ba6137f0565b5b60006127c9858286016126b2565b92505060206127da858286016126b2565b9150509250929050565b6000806000606084860312156127fd576127fc6137f0565b5b600061280b868287016126b2565b935050602061281c868287016126b2565b925050604061282d86828701612762565b9150509250925092565b60008060008060808587031215612851576128506137f0565b5b600061285f878288016126b2565b9450506020612870878288016126b2565b935050604061288187828801612762565b925050606085013567ffffffffffffffff8111156128a2576128a16137eb565b5b6128ae87828801612706565b91505092959194509250565b600080604083850312156128d1576128d06137f0565b5b60006128df858286016126b2565b92505060206128f0858286016126c7565b9150509250929050565b60008060408385031215612911576129106137f0565b5b600061291f858286016126b2565b925050602061293085828601612762565b9150509250929050565b6000602082840312156129505761294f6137f0565b5b600061295e848285016126dc565b91505092915050565b60006020828403121561297d5761297c6137f0565b5b600061298b848285016126f1565b91505092915050565b6000602082840312156129aa576129a96137f0565b5b600082013567ffffffffffffffff8111156129c8576129c76137eb565b5b6129d484828501612734565b91505092915050565b600080604083850312156129f4576129f36137f0565b5b600083013567ffffffffffffffff811115612a1257612a116137eb565b5b612a1e85828601612734565b925050602083013567ffffffffffffffff811115612a3f57612a3e6137eb565b5b612a4b85828601612734565b9150509250929050565b600060208284031215612a6b57612a6a6137f0565b5b6000612a7984828501612762565b91505092915050565b612a8b8161352c565b82525050565b612a9a8161353e565b82525050565b6000612aab826133d4565b612ab581856133ea565b9350612ac58185602086016135bc565b612ace816137f5565b840191505092915050565b6000612ae4826133df565b612aee81856133fb565b9350612afe8185602086016135bc565b612b07816137f5565b840191505092915050565b6000612b1d826133df565b612b27818561340c565b9350612b378185602086016135bc565b80840191505092915050565b6000612b506012836133fb565b9150612b5b82613806565b602082019050919050565b6000612b736032836133fb565b9150612b7e8261382f565b604082019050919050565b6000612b96601c836133fb565b9150612ba18261387e565b602082019050919050565b6000612bb960238361340c565b9150612bc4826138a7565b602382019050919050565b6000612bdc6022836133fb565b9150612be7826138f6565b604082019050919050565b6000612bff6024836133fb565b9150612c0a82613945565b604082019050919050565b6000612c226019836133fb565b9150612c2d82613994565b602082019050919050565b6000612c45600a8361340c565b9150612c50826139bd565b600a82019050919050565b6000612c68602c836133fb565b9150612c73826139e6565b604082019050919050565b6000612c8b6038836133fb565b9150612c9682613a35565b604082019050919050565b6000612cae60018361340c565b9150612cb982613a84565b600182019050919050565b6000612cd1602a836133fb565b9150612cdc82613aad565b604082019050919050565b6000612cf46029836133fb565b9150612cff82613afc565b604082019050919050565b6000612d17602e836133fb565b9150612d2282613b4b565b604082019050919050565b6000612d3a6020836133fb565b9150612d4582613b9a565b602082019050919050565b6000612d5d601d836133fb565b9150612d6882613bc3565b602082019050919050565b6000612d80600d8361340c565b9150612d8b82613bec565b600d82019050919050565b6000612da360018361340c565b9150612dae82613c15565b600182019050919050565b6000612dc66031836133fb565b9150612dd182613c3e565b604082019050919050565b6000612de9600c836133fb565b9150612df482613c8d565b602082019050919050565b6000612e0c602c836133fb565b9150612e1782613cb6565b604082019050919050565b6000612e2f60098361340c565b9150612e3a82613d05565b600982019050919050565b6000612e526029836133fb565b9150612e5d82613d2e565b604082019050919050565b6000612e75602f836133fb565b9150612e8082613d7d565b604082019050919050565b6000612e9860018361340c565b9150612ea382613dcc565b600182019050919050565b6000612ebb603c8361340c565b9150612ec682613df5565b603c82019050919050565b6000612ede6021836133fb565b9150612ee982613e44565b604082019050919050565b6000612f016031836133fb565b9150612f0c82613e93565b604082019050919050565b612f2081613596565b82525050565b6000612f328284612b12565b915081905092915050565b6000612f498285612b12565b9150612f558284612b12565b91508190509392505050565b6000612f6d8285612b12565b9150612f798284612b12565b9150612f8482612c38565b91508190509392505050565b6000612f9b82612e8b565b9150612fa682612e22565b9150612fb28286612b12565b9150612fbd82612eae565b9150612fc98285612b12565b9150612fd482612bac565b9150612fdf82612d73565b9150612feb8284612b12565b9150612ff682612ca1565b915061300182612d96565b9150819050949350505050565b60006020820190506130236000830184612a82565b92915050565b600060808201905061303e6000830187612a82565b61304b6020830186612a82565b6130586040830185612f17565b818103606083015261306a8184612aa0565b905095945050505050565b600060208201905061308a6000830184612a91565b92915050565b600060208201905081810360008301526130aa8184612ad9565b905092915050565b600060208201905081810360008301526130cb81612b43565b9050919050565b600060208201905081810360008301526130eb81612b66565b9050919050565b6000602082019050818103600083015261310b81612b89565b9050919050565b6000602082019050818103600083015261312b81612bcf565b9050919050565b6000602082019050818103600083015261314b81612bf2565b9050919050565b6000602082019050818103600083015261316b81612c15565b9050919050565b6000602082019050818103600083015261318b81612c5b565b9050919050565b600060208201905081810360008301526131ab81612c7e565b9050919050565b600060208201905081810360008301526131cb81612cc4565b9050919050565b600060208201905081810360008301526131eb81612ce7565b9050919050565b6000602082019050818103600083015261320b81612d0a565b9050919050565b6000602082019050818103600083015261322b81612d2d565b9050919050565b6000602082019050818103600083015261324b81612d50565b9050919050565b6000602082019050818103600083015261326b81612db9565b9050919050565b6000602082019050818103600083015261328b81612ddc565b9050919050565b600060208201905081810360008301526132ab81612dff565b9050919050565b600060208201905081810360008301526132cb81612e45565b9050919050565b600060208201905081810360008301526132eb81612e68565b9050919050565b6000602082019050818103600083015261330b81612ed1565b9050919050565b6000602082019050818103600083015261332b81612ef4565b9050919050565b60006020820190506133476000830184612f17565b92915050565b6000613357613368565b90506133638282613621565b919050565b6000604051905090565b600067ffffffffffffffff82111561338d5761338c6137b2565b5b613396826137f5565b9050602081019050919050565b600067ffffffffffffffff8211156133be576133bd6137b2565b5b6133c7826137f5565b9050602081019050919050565b600081519050919050565b600081519050919050565b600082825260208201905092915050565b600082825260208201905092915050565b600081905092915050565b600061342282613596565b915061342d83613596565b9250827fffffffffffffffffffffffffffffffffffffffffffffffffffffffffffffffff03821115613462576134616136f6565b5b828201905092915050565b600061347882613596565b915061348383613596565b92508261349357613492613725565b5b828204905092915050565b60006134a982613596565b91506134b483613596565b9250817fffffffffffffffffffffffffffffffffffffffffffffffffffffffffffffffff04831182151516156134ed576134ec6136f6565b5b828202905092915050565b600061350382613596565b915061350e83613596565b925082821015613521576135206136f6565b5b828203905092915050565b600061353782613576565b9050919050565b60008115159050919050565b60007fffffffff0000000000000000000000000000000000000000000000000000000082169050919050565b600073ffffffffffffffffffffffffffffffffffffffff82169050919050565b6000819050919050565b600060ff82169050919050565b82818337600083830152505050565b60005b838110156135da5780820151818401526020810190506135bf565b838111156135e9576000848401525b50505050565b6000600282049050600182168061360757607f821691505b6020821081141561361b5761361a613754565b5b50919050565b61362a826137f5565b810181811067ffffffffffffffff82111715613649576136486137b2565b5b80604052505050565b600061365d82613596565b91507fffffffffffffffffffffffffffffffffffffffffffffffffffffffffffffffff8214156136905761368f6136f6565b5b600182019050919050565b60006136a6826135a0565b915060ff8214156136ba576136b96136f6565b5b600182019050919050565b60006136d082613596565b91506136db83613596565b9250826136eb576136ea613725565b5b828206905092915050565b7f4e487b7100000000000000000000000000000000000000000000000000000000600052601160045260246000fd5b7f4e487b7100000000000000000000000000000000000000000000000000000000600052601260045260246000fd5b7f4e487b7100000000000000000000000000000000000000000000000000000000600052602260045260246000fd5b7f4e487b7100000000000000000000000000000000000000000000000000000000600052603260045260246000fd5b7f4e487b7100000000000000000000000000000000000000000000000000000000600052604160045260246000fd5b600080fd5b600080fd5b600080fd5b600080fd5b6000601f19601f8301169050919050565b7f4c656e677468206e6f7420636f72726563740000000000000000000000000000600082015250565b7f4552433732313a207472616e7366657220746f206e6f6e20455243373231526560008201527f63656976657220696d706c656d656e7465720000000000000000000000000000602082015250565b7f4552433732313a20746f6b656e20616c7265616479206d696e74656400000000600082015250565b7f206d696e746564206f6e2074686520457468657265756d20626c6f636b63686160008201527f696e2e0000000000000000000000000000000000000000000000000000000000602082015250565b7f436f6c6f7220636f646520646f6573206e6f7420626567696e2077697468202760008201527f2327000000000000000000000000000000000000000000000000000000000000602082015250565b7f4552433732313a207472616e7366657220746f20746865207a65726f2061646460008201527f7265737300000000000000000000000000000000000000000000000000000000602082015250565b7f4552433732313a20617070726f766520746f2063616c6c657200000000000000600082015250565b7f27202f3e3c2f7376673e00000000000000000000000000000000000000000000600082015250565b7f4552433732313a206f70657261746f7220717565727920666f72206e6f6e657860008201527f697374656e7420746f6b656e0000000000000000000000000000000000000000602082015250565b7f4552433732313a20617070726f76652063616c6c6572206973206e6f74206f7760008201527f6e6572206e6f7220617070726f76656420666f7220616c6c0000000000000000602082015250565b7f2200000000000000000000000000000000000000000000000000000000000000600082015250565b7f4552433732313a2062616c616e636520717565727920666f7220746865207a6560008201527f726f206164647265737300000000000000000000000000000000000000000000602082015250565b7f4552433732313a206f776e657220717565727920666f72206e6f6e657869737460008201527f656e7420746f6b656e0000000000000000000000000000000000000000000000602082015250565b7f45524337323155524953746f726167653a2055524920736574206f66206e6f6e60008201527f6578697374656e7420746f6b656e000000000000000000000000000000000000602082015250565b7f4552433732313a206d696e7420746f20746865207a65726f2061646472657373600082015250565b7f436f6c6f7220636f6465206973206e6f742061206865782076616c7565000000600082015250565b7f222c2022696d616765223a202200000000000000000000000000000000000000600082015250565b7f7d00000000000000000000000000000000000000000000000000000000000000600082015250565b7f45524337323155524953746f726167653a2055524920717565727920666f722060008201527f6e6f6e6578697374656e7420746f6b656e000000000000000000000000000000602082015250565b7f436f6c6f72206578697374730000000000000000000000000000000000000000600082015250565b7f4552433732313a20617070726f76656420717565727920666f72206e6f6e657860008201527f697374656e7420746f6b656e0000000000000000000000000000000000000000602082015250565b7f226e616d65223a20220000000000000000000000000000000000000000000000600082015250565b7f4552433732313a207472616e73666572206f6620746f6b656e2074686174206960008201527f73206e6f74206f776e0000000000000000000000000000000000000000000000602082015250565b7f4552433732314d657461646174613a2055524920717565727920666f72206e6f60008201527f6e6578697374656e7420746f6b656e0000000000000000000000000000000000602082015250565b7f7b00000000000000000000000000000000000000000000000000000000000000600082015250565b7f222c20226465736372697074696f6e223a202250726f6f66206f66206f776e6560008201527f7273686970206f6620746865206f726967696e616c20636f6c6f722000000000602082015250565b7f4552433732313a20617070726f76616c20746f2063757272656e74206f776e6560008201527f7200000000000000000000000000000000000000000000000000000000000000602082015250565b7f4552433732313a207472616e736665722063616c6c6572206973206e6f74206f60008201527f776e6572206e6f7220617070726f766564000000000000000000000000000000602082015250565b613eeb8161352c565b8114613ef657600080fd5b50565b613f028161353e565b8114613f0d57600080fd5b50565b613f198161354a565b8114613f2457600080fd5b50565b613f3081613596565b8114613f3b57600080fd5b5056fe4142434445464748494a4b4c4d4e4f505152535455565758595a6162636465666768696a6b6c6d6e6f707172737475767778797a303132333435363738392b2f3c7376672077696474683d273130302527206865696768743d27313030252720786d6c6e733d27687474703a2f2f7777772e77332e6f72672f323030302f737667273e3c726563742077696474683d273130302527206865696768743d2731303025272066696c6c3d27a264697066735822122042cab0d5b09a76a24d130ccddce8fe33a9fc89c81d0c19dac19aa3a7a6a174ac64736f6c63430008070033",
  "immutableReferences": {},
  "source": "// SPDX-License-Identifier: MIT\r\npragma solidity ^0.8.0;\r\n\r\nimport \"@openzeppelin/contracts/token/ERC721/extensions/ERC721URIStorage.sol\";\r\nimport \"@openzeppelin/contracts/token/ERC721/extensions/ERC721Enumerable.sol\";\r\nimport \"base64-sol/base64.sol\";\r\n\r\ncontract EthereumColors is ERC721URIStorage {\r\n\r\n    string[] public colors;\r\n\r\n    mapping(string => bool) _colorExists;\r\n    mapping(string => uint) colorToTokenId;\r\n\r\n    event CreatedColor(uint256 indexed tokenId, string tokenUri);\r\n\r\n    modifier onlyHexColor(bytes memory _color) {\r\n        require(_color.length == 7, \"Length not correct\");\r\n        require(_color[0] == \"#\", \"Color code does not begin with '#'\");\r\n        for (uint8 i = 1; i < 7; i++) {\r\n            require(\r\n                _color[i] == 0x30 || // 0\r\n                _color[i] == 0x31 || // 1\r\n                _color[i] == 0x32 || // 2\r\n                _color[i] == 0x33 || // 3\r\n                _color[i] == 0x34 || // 4\r\n                _color[i] == 0x35 || // 5\r\n                _color[i] == 0x36 || // 6\r\n                _color[i] == 0x37 || // 7\r\n                _color[i] == 0x38 || // 8\r\n                _color[i] == 0x39 || // 9\r\n                _color[i] == 0x41 || // A\r\n                _color[i] == 0x42 || // B\r\n                _color[i] == 0x43 || // C\r\n                _color[i] == 0x44 || // D\r\n                _color[i] == 0x45 || // E\r\n                _color[i] == 0x46,   // F\r\n                \"Color code is not a hex value\"\r\n            );\r\n        }\r\n        _;\r\n    }\r\n    \r\n    constructor() ERC721(\"EthereumColors\", \"COLORS\") {\r\n    }\r\n\r\n    // Make this bytes32 or smaller??\r\n    function mint(string  memory _color) external onlyHexColor(bytes(_color)) {\r\n        require(!_colorExists[_color], 'Color exists');\r\n        uint _id = colors.length;\r\n        _safeMint(msg.sender, _id);\r\n        colors.push(_color);\r\n        _colorExists[_color] = true; // maybe remove and use tokenIdToColor?\r\n        colorToTokenId[_color] = _id;\r\n        string memory tokenUri = getTokenUriForColor(_color);\r\n        _setTokenURI(_id, tokenUri);\r\n        emit CreatedColor(_id, tokenUri);\r\n    }\r\n\r\n    function totalSupply() public view returns (uint) {\r\n        return colors.length;\r\n    }\r\n\r\n    // Probably don't need this\r\n    function getTokenIdForColor(string memory _color) public view returns (uint) {\r\n        uint tokenId = colorToTokenId[_color];\r\n        return tokenId;\r\n    }\r\n\r\n    function getMetadataForColor(string memory _color) public view returns (string memory) {\r\n        uint tokenId = colorToTokenId[_color];\r\n        string memory metadata = tokenURI(tokenId);\r\n        return metadata;\r\n    }\r\n\r\n    function getTokenUriForColor(string memory _color) public pure returns (string memory) {\r\n        string memory _imageUri = colorToImageUri(_color);\r\n        string memory tokenUri = formatTokenUri(_color, _imageUri);\r\n        return tokenUri;\r\n    }\r\n\r\n    function colorToImageUri(string memory _color) public pure returns (string memory) {\r\n        // <svg width='100%' height='100%' xmlns='http://www.w3.org/2000/svg'><rect width='100%' height='100%' fill='lime' /></svg>\r\n        // data:image/svg+xml;base64,<Base64-encoding)\r\n        string memory baseUrl = \"data:image/svg+xml;base64,\";\r\n        string memory baseSvg = \"<svg width='100%' height='100%' xmlns='http://www.w3.org/2000/svg'><rect width='100%' height='100%' fill='\";\r\n        string memory svg =  string(abi.encodePacked(baseSvg, _color, \"' /></svg>\"));\r\n        string memory svgBase64Encoded = Base64.encode(bytes(string(abi.encodePacked(svg))));\r\n        string memory imageUri = string(abi.encodePacked(baseUrl, svgBase64Encoded));\r\n        return imageUri;\r\n    }\r\n\r\n    // EXTERNAL URL IS INVALID... CHANGE\r\n    function formatTokenUri(string memory _color, string memory _imageUri) public pure returns (string memory) {\r\n        string memory baseUri = \"data:application/json;base64,\";\r\n        string memory json = string(abi.encodePacked(\r\n            '{',\r\n                '\"name\": \"', _color, \r\n                '\", \"description\": \"Proof of ownership of the original color ',\r\n                _color, ' minted on the Ethereum blockchain.',\r\n                '\", \"image\": \"', _imageUri, '\"',\r\n            '}'\r\n        ));\r\n        string memory encodedJson = Base64.encode(bytes(json));\r\n        string memory tokenUri = string(abi.encodePacked(baseUri, encodedJson));\r\n        return tokenUri;\r\n    }\r\n}",
  "sourcePath": "C:\\Developer\\NFT\\mint_eth_nfts_with_react_ui\\src\\contracts\\EthereumColors.sol",
  "compiler": {
    "name": "solc",
    "version": "0.8.7+commit.e28d00a7.Emscripten.clang"
  },
  "schemaVersion": "3.4.3",
  "updatedAt": "2021-09-13T16:37:14.469Z",
  "networkType": "ethereum",
  "devdoc": {
    "kind": "dev",
    "methods": {
      "approve(address,uint256)": {
        "details": "See {IERC721-approve}."
      },
      "balanceOf(address)": {
        "details": "See {IERC721-balanceOf}."
      },
      "getApproved(uint256)": {
        "details": "See {IERC721-getApproved}."
      },
      "isApprovedForAll(address,address)": {
        "details": "See {IERC721-isApprovedForAll}."
      },
      "name()": {
        "details": "See {IERC721Metadata-name}."
      },
      "ownerOf(uint256)": {
        "details": "See {IERC721-ownerOf}."
      },
      "safeTransferFrom(address,address,uint256)": {
        "details": "See {IERC721-safeTransferFrom}."
      },
      "safeTransferFrom(address,address,uint256,bytes)": {
        "details": "See {IERC721-safeTransferFrom}."
      },
      "setApprovalForAll(address,bool)": {
        "details": "See {IERC721-setApprovalForAll}."
      },
      "supportsInterface(bytes4)": {
        "details": "See {IERC165-supportsInterface}."
      },
      "symbol()": {
        "details": "See {IERC721Metadata-symbol}."
      },
      "tokenURI(uint256)": {
        "details": "See {IERC721Metadata-tokenURI}."
      },
      "transferFrom(address,address,uint256)": {
        "details": "See {IERC721-transferFrom}."
      }
    },
    "version": 1
  },
  "userdoc": {
    "kind": "user",
    "methods": {},
    "version": 1
  }
}